:100000000C942A000C943C000C943C000C943C0092
:100010000C943C000C943C000C943C000C943C0070
:100020000C943C000C943C000C943C000C943C0060
:100030000C943C000C943C000C943C000C943C0050
:100040000C943C000C943C000C943C000C943C0040
:100050000C943C0011241FBECFE5D8E0DEBFCDBF1D
:1000600020E0A0E6B0E001C01D92A839B207E1F798
:100070000E944E000C9461020C94000080E487B949
:1000800087E886B9089597B18770982B97B9369A03
:10009000349BFECF349A84B195B108958FEF81BB24
:1000A00084BB0E943E001092850010928400109242
:1000B00089001092880010927300109272001092C2
:1000C0007700109276001092930010929200109296
:1000D000790010927800109295001092940010927E
:1000E0009700109296001092630010926200109296
:1000F0006F0010926E00109287001092860010928E
:100100007B0010927A0010928B0010928A0010925D
:1001100067001092660010928D0010928C00109271
:100120008F0010928E0010927D0010927C00109231
:100130008300109282001092910010929000109211
:1001400061001092600012BAC1E0D0E01AE60F2EF2
:10015000FAE9EF2EF02D0F2EF6EAFF2EF02D09EA28
:100160000E943E0080E00E944300803921E0920717
:10017000A0F42091840030918500232B71F4D0935A
:100180008500C093840020918E0030918F002F5FF6
:100190003F4F30938F0020938E0020918400309148
:1001A00085002130310539F48139914020F01092D9
:1001B0008500109284000E943E0081E00E9443006E
:1001C000853622E09207A0F42091880030918900C2
:1001D000232B71F4D0938900C093880020918C0068
:1001E00030918D002F5F3F4F30938D0020938C0016
:1001F00020918800309189002130310539F486360C
:10020000924020F010928900109288000E943E00D7
:1002100082E00E944300803E21E09207A0F42091FA
:10022000720030917300232B71F4D0937300C0934C
:10023000720020916600309167002F5F3F4F30932E
:100240006700209366002091720030917300213086
:10025000310539F4813E914020F0109273001092E4
:1002600072000E943E0083E00E944300823322E03D
:100270009207A0F42091760030917700232B71F43F
:10028000D0937700C093760020918A0030918B0044
:100290002F5F3F4F30938B0020938A002091760090
:1002A000309177002130310539F48333924020F0CA
:1002B00010927700109276000E943E0084E00E9427
:1002C00043008C3322E09207A0F4209192003091F9
:1002D0009300232B71F4D0939300C093920020914C
:1002E0007A0030917B002F5F3F4F30937B0020934B
:1002F0007A0020919200309193002130310539F439
:100300008D33924020F010929300109292000E9440
:100310003E0085E00E9443008C3C9105A0F42091B2
:10032000780030917900232B71F4D0937900C09339
:10033000780020918600309187002F5F3F4F3093E7
:100340008700209386002091780030917900213039
:10035000310539F48D3C910520F01092790010920E
:1003600078000E943E0086E00E9443008B3022E02D
:100370009207A0F42091940030919500232B71F402
:10038000D0939500C093940020916E0030916F003F
:100390002F5F3F4F30936F0020936E0020919400A9
:1003A000309195002130310539F48C30924020F0A5
:1003B00010929500109294000E943E0087E00E94E7
:1003C0004300833A9105A0F4209196003091970064
:1003D000232B71F4D0939700C09396002091620074
:1003E000309163002F5F3F4F309363002093620092
:1003F00020919600309197002130310539F4843AEC
:10040000910520F0109297001092960020916E00B6
:1004100030916F0080918E0090918F00281B390BD6
:100420003093610020936000809166009091670096
:1004300040918A0050918B00841B950B9093910002
:10044000809390004091620050916300609186001B
:1004500070918700461B570B509383004093820096
:1004600060918C0070918D00E0917A00F0917B009A
:100470006E1B7F0B70937D0060937C0028173907FB
:100480005CF0241735072CF02617370714F002BB51
:1004900067CE8217930744F08417950744F08617B8
:1004A000970714F0F2BA5CCE4817590744F0421788
:1004B00053072CF04617570714F0E2BA51CE12BB7F
:0604C0004FCEF894FFCFBF
:00000001FF
